:100000000C9434000C943E000C943E000C943E0082
:100010000C943E000C943E000C943E000C943E0068
:100020000C943E000C943E000C943E000C943E0058
:100030000C943E000C943E000C943E000C943E0048
:100040000C943E000C943E000C943E000C943E0038
:100050000C943E000C943E000C943E000C943E0028
:100060000C943E000C943E0011241FBECFEFD8E04C
:10007000DEBFCDBF0E94BB010C9431020C94000086
:10008000BC018091B9008E7F8093B9008091B90046
:100090008D7F8093B90080ED97E00E941D02603152
:1000A00030F0862F90E0409795958795682F609364
:1000B000B800089584E690E00E944000ECEBF0E088
:1000C00080818460808308953C9A84EA8093BC0098
:1000D000089584E98093BC00089520E030E002C0D8
:1000E0002F5F3F4F8091BC0087FD03C02A3531054B
:1000F000B9F70895882329F08091BC008F70806C37
:1001000004C08091BC008F7080688093BC0008950B
:100110008091BB0008958091B90008950BC020E044
:100120000000000000000000000000002F5F2A35E2
:10013000B9F70197009799F708951F93182F81E059
:1001400090E00E948E003C9A1093BB0084E880935C
:10015000BC001F9108951F93182F3C9A84EA809346
:10016000BC0020E030E002C02F5F3F4F8091BC0018
:1001700087FD03C02A353105B9F784EB0E949D0045
:1001800020E030E002C02F5F3F4F8091BC0087FD30
:1001900003C02A353105B9F7812F0E949D0020E068
:1001A00030E002C02F5F3F4F8091BC0087FD03C04D
:1001B0002A353105B9F73C9A84EA8093BC0085EB77
:1001C0000E949D0020E030E002C02F5F3F4F8091F1
:1001D000BC0087FD03C02A353105B9F78FEF0E94B7
:1001E0007A0020E030E002C02F5F3F4F8091BC00DA
:1001F00087FD03C02A353105B9F79091BB0020E097
:1002000030E002C02F5F3F4F8091BC0087FD03C0EC
:100210002A353105B9F784E98093BC008091BC0090
:100220008B7F8093BC008091BC0084608093BC0075
:10023000892F1F9108950F931F93182F062F3C9A13
:1002400084EA8093BC0020E030E002C02F5F3F4F83
:100250008091BC0087FD03C02A353105B9F784EBD6
:100260000E949D0020E030E002C02F5F3F4F809150
:10027000BC0087FD03C02A353105B9F7812F0E94E4
:100280009D0020E030E002C02F5F3F4F8091BC0016
:1002900087FD03C02A353105B9F7802F0E949D00E4
:1002A00020E030E002C02F5F3F4F8091BC0087FD0F
:1002B00003C02A353105B9F784E98093BC001F914A
:1002C0000F9108958BE261E00E941B018CE261E0D6
:1002D0000E941B018DE260E00E941B018EE260E043
:1002E0000E941B018FE261E00E941B0180E361E03C
:1002F0000E941B0181E36FEF0E941B0182E362E019
:100300000E941B0181E46FE00E941B0182E46AE00D
:100310000E941B0183E46FE00E941B0184E46AE0F9
:100320000E941B0185E46FE00E941B0186E46AE0E5
:100330000E941B0187E46FE00E941B0188E46AE0D1
:100340000E941B0189E46FE00E941B018AE46AE0BD
:100350000E941B018BE46FE00E941B018CE46AE0A9
:100360000E941B018DE564E00E941B018EE566E0A2
:100370000E941B0108951F93CF93DF9380E684B9F9
:1003800083E187B98AEF8AB980E388B90E945A006D
:1003900084E690E00E948E0089B10E94620187E7A6
:1003A0006FEF0E941B0186E76FEF0E941B0183E73E
:1003B0006FEF0E941B0184E76FEF0E941B0189E72A
:1003C0006FEF0E941B01C0E0D0E088E76FEF0E9452
:1003D0001B0184EF91E00E948E0089E76FEF0E947D
:1003E0001B0184EF91E00E948E002196C530D1055B
:1003F00061F74A99FECF80E00E94AB00182F89E791
:100400006FEF0E941B01110F110F88E7612F0E94EF
:100410001B01EFCF29B130E036952795369527950A
:1004200021703070C901089580E684B983E187B9ED
:100430008AEF8AB980E388B90895AA1BBB1B51E1F2
:1004400007C0AA1FBB1FA617B70710F0A61BB70B44
:10045000881F991F5A95A9F780959095BC01CD01E9
:060460000895F894FFCF9F
:00000001FF
